:100000008EC09DC09CC09BC09AC0F8C298C097C0CB
:10001000C7C295C094C093C092C0DAC025C1005E2B
:10002000BCE2613FDD83C29C7E20A3FD1F419DC3D6
:10003000217FFCA2401E5F01E3BD3E6082DC237D88
:100040009FC1421CFEA0E1BF5D0380DE3C62BEE0BA
:10005000025CDF81633D7C22C09E1D43A1FF4618E8
:10006000FAA427799BC584DA3866E5BB5907DB8596
:100070006739BAE406581947A5FB7826C49A653B48
:10008000D987045AB8E6A7F91B45C6987A24F8A67A
:10009000441A99C7257B3A6486D85B05E7B98CD2A8
:1000A000306EEDB3510F4E10F2AC2F7193CD114F56
:1000B000ADF3702ECC92D38D6F31B2EC0E50AFF108
:1000C000134DCE90722C6D33D18F0C52B0EE326C3A
:1000D0008ED0530DEFB1F0AE4C1291CF2D73CA9468
:1000E0007628ABF517490856B4EA6937D58B570916
:1000F000EBB536688AD495CB2977F4AA4816E9B7C8
:10010000550B88D6346A2B7597C94A14F6A8742AF9
:10011000C896154BA9F7B6E80A54D7896B35112450
:100120001FBECFE5D2E0DEBFCDBF20E0A0E6B0E04D
:1001300001C01D92AE38B207E1F7B6D29DC360CFC1
:1001400010927100109278001092720010927B0051
:10015000109270001092770080936A00C29AC09A41
:10016000B898BA9888EA8DB980EF8EB908958093CF
:100170006A000895909177009430E1F3E091700067
:10018000F0E0EF59FF4F8083809170008F5F8370A4
:1001900080937000809177008F5F8093770008953F
:1001A00080917200882391F0E0917100F0E0EB59AA
:1001B000FF4F8081909171009F5F937090937100C9
:1001C00090917200915090937200089580E008958C
:1001D0001F920F920FB60F9211242F933F934F93BC
:1001E0005F936F937F938F939F93AF93BF93EF939F
:1001F000FF93B8981092690080EC8EB9789486B31A
:10020000982F95709430D9F380FD17C080916000CD
:10021000882369F080917200882349F0E09175008D
:10022000F0917600309719F080917200099588EF6F
:100230008DB981E08093600004C088EA8DB9109286
:10024000600080EF8EB9FF91EF91BF91AF919F91C8
:100250008F917F916F915F914F913F912F910F906F
:100260000FBE0F901F9018951F920F920FB60F920E
:1002700011242F933F934F935F936F937F938F93AB
:100280009F93AF93BF93EF93FF9380916900823068
:1002900009F497C030F4882361F0813009F46DC00F
:1002A0009CC0843009F493C008F45DC0853059F1D6
:1002B00094C08FB1882331F090916A00282F269541
:1002C000291354C0B89A1FB89EE79EB980FF19C081
:1002D00081E08093690080917200882349F0E09169
:1002E0007500F0917600309719F0809172000995B1
:1002F000E0917300F0917400309709F46EC0099595
:100300006CC084E068C08FB1B89A1FB89EE79EB9F0
:1003100090917200943088F4E0917800F0E0EB590D
:10032000FF4F8083809178008F5F83708093780087
:10033000809172008F5F8093720084E080936900E7
:1003400080917200843009F048C080917200882347
:1003500089F0E0917500F0917600309759F0809126
:100360007200099507C08FB1882339F088EA8DB9EA
:1003700080E78EB91092600030C0809177008823AA
:10038000B9F0B89A80E78EB9E0917B00F0E0EF59C0
:10039000FF4F80818FB980917B008F5F8370809346
:1003A0007B008091770081508093770082E013C0BA
:1003B000B8981FB88EE78EB988EA8DB980E78EB9F4
:1003C0000CC0B8981FB88EE78EB983E004C0B89807
:1003D00080E78EB985E080936900FF91EF91BF912E
:1003E000AF919F918F917F916F915F914F913F91CD
:1003F0002F910F900FBE0F901F9018950F931F9382
:10040000CF93DF931092700010927B0010927700D0
:10041000809186008530C1F4109286007894C09156
:100420008700D0918800DC0F10E0CD1751F18C2FA0
:1004300090E008D2082F9EDE1027E12FF0E0E25E68
:10044000FF4F1491CF5FF1CFF894C0918000D0910D
:100450008100D0937F00C0937E00109281001092A3
:1004600080007894FE01FF27E25EFF4F14918C2FED
:1004700081DE1D27E12FF0E0E25EFF4F14918D2F0A
:1004800079DE812FDF91CF911F910F9173CE1F9352
:10049000CF93DF93843009F079C07894CAE8D0E034
:1004A00010E07EDE89931827E12FF0E0E25EFF4F37
:1004B000149180E0CD38D807A1F772DE18136CC014
:1004C00080918A008130A9F4F89480918000909105
:1004D000810020917E0030917F00820F931F9093C6
:1004E00081008093800010927F0010927E007894AB
:1004F00053C0833059F4C0918B006C2F81E090E0A1
:10050000A9D18C2FDF91CF911F9131CE843089F406
:1005100060918B0060937C0082E090E09BD16091C1
:100520008C006093840083E090E0DF91CF911F9175
:1005300091C18230D1F480918B00811101C08CE394
:100540008093820080918C00811101C084E18093AE
:1005500085008FEF80937D001092830081E080936F
:100560006D0089B7826089BF17C080918A00909121
:100570008B00A0918C00B0918D00809386009093A9
:100580008700A0938800B093890006C0109278007D
:100590001092710010927200DF91CF911F91089517
:1005A0001F920F920FB60F9211248F939F9385B1D4
:1005B00080936C0090916F00992341F090917C00A2
:1005C0009817A8F0C19810926F0008C0909184000D
:1005D000891768F0C19A81E080936F008091800054
:1005E00090918100019690938100809380009F916B
:1005F0008F910F900FBE0F901F90189578941F92B7
:100600000F920FB60F9211248F9380916E008F5F1F
:1006100080936E00843191F410926E00809182007C
:10062000882361F0815080938200811107C08091FE
:100630006D00882319F082E080936D008F910F90F8
:100640000FBE0F901F901895882361F02FEF30E7B1
:1006500092E0215030409040E1F700C00000A895A2
:100660008150F2CF089580E090E0ECD08F3F09F008
:1006700081BF82E090E0E6D080937C0083E090E050
:10068000E1D080938400089561B780E090E0E2D0EB
:1006900062E281E090E0DED06AEB82E090E0DAD0C6
:1006A0006DEE83E090E0D6C080E886BD16BC80E2A7
:1006B00085BF88BBB99AC49A81E08ABD8DE083BFAB
:1006C00083EC89BD83E287B98EEE86B988E181BD6E
:1006D0008EE081BD82E090E0B5D08F3F09F4D4DF99
:1006E000C2DF81E090E0AED08F3F69F02EEF31E0C5
:1006F000309374002093730027E432E03093760047
:10070000209375001DDD789481E09EDF10928100BA
:1007100010928000B49B03C0C4E6D0E03EC08EE1DE
:1007200093DFB499F9CF82E38FDFB49BF5CF8CE3ED
:10073000809382008FEF80937D001092830081E090
:1007400080936D0089B7826089BFE6CF823061F502
:1007500020917D008091830090E0821B9109883078
:100760009105B4F06091850070E034D0BE0143D0B3
:10077000162F622F610F60937C0082E090E06AD0B8
:1007800060918300611B6093840083E090E062D0FD
:1007900089B78D7F89BF10926D008895A89580914B
:1007A0006D008823D1F3D2CF80916C0090916B00C3
:1007B000981799F390917D00891718F480937D0024
:1007C00006C090918300981710F480938300809363
:1007D0006B00E3CF0024552704C0080E591F880F73
:1007E000991F009729F076956795B8F37105B9F7C9
:1007F000802D952F089597FB072E16F4009406D0B0
:1008000077FD08D00BD007FC05D03EF4909581957C
:100810009F4F0895709561957F4F0895AA1BBB1B4C
:1008200051E107C0AA1FBB1FA617B70710F0A61BF0
:10083000B70B881F991F5A95A9F780959095BC0111
:10084000CD010895E199FECF9FBB8EBBE09A992719
:100850008DB30895262FE199FECF9FBB8EBBE09A02
:1008600001970DB2021639F01CBA2DBB0FB6F894E1
:0C087000E29AE19A0FBE0895F894FFCFC1
:00000001FF
