:1000000009C016C015C08AC013C012C011C010C0EC
:100010000FC057C011241FBECFE9CDBF20E0A0E61E
:10002000B0E001C01D92A836B207E1F7A6D0DAC150
:10003000E7CFA110880F882361F02FEF36E791E01A
:10004000215030409040E1F700C00000A895815059
:10005000F2CF08957F928F92CF93DF931F92CDB707
:10006000DD27742E882EC29A882049F0862F698356
:10007000E0DFC298872DDDDF8A946981F4CF0F908D
:10008000DF91CF918F907F9008958FE0D2CFCF9363
:10009000C82F41E061E082E0DDDFF7DF47E067E0A5
:1000A0008C2F82958F70D6DFF0DF41E061E082E037
:1000B000D1DFEBDF47E067E08C2F8F70CBDFCF9194
:1000C000E4CF1F920F920FB60F9211248F939F933C
:1000D00085B1C82E002371F0E816C8F081E0810FC9
:1000E000182F8F1105C088B392E0892788BB10E0D4
:1000F00000E00DC08D1558F081E0810F182F8F1191
:1001000005C088B392E0892788BB10E001E09F9189
:100110008F910F900FBE0F901F90189578941F929B
:100120000F920FB60F9211248F93809163008F5F0F
:1001300080936300843191F4109263008091660093
:10014000882361F0815080936600811107C08091FF
:100150006200882319F082E080936200C29906C091
:1001600081E08B0DB82E853011F4C29AB12C8F919D
:100170000F900FBE0F901F901895E0E089E087BFA9
:10018000A490A1FAAA24A0F880E886BD16BCB99A6A
:10019000C49AC29ABA9A88B3816288BB80E285BF4A
:1001A00081E08FBD8DE083BF89B7826089BFAA20BF
:1001B00011F08AEE01C085E786BF83E287B9AA20E5
:1001C00011F08EEE01C08DEE86B901E010E080E006
:1001D00090E0EED08F3F81F461E080E090E0F0D0DD
:1001E00061E781E090E0ECD06CEB82E090E0E8D059
:1001F00064E183E090E0E4D080E090E0D9D0F82E94
:1002000081E090E0D5D0E82E82E090E0D1D0D82EE9
:10021000B4991BC08EE10DDFB49917C0C2E381E031
:1002200008DFB49B10C042E062E085E013DF8CE39E
:10023000809366008FEF809365001092670081E0E5
:100240008093620002C0C15051F7789441E061E0B0
:100250008F2D00DF88B38270982E84E6682E712C73
:100260008895A89580916200882309F447C0823060
:1002700091F580906500C0916700D0E0C819D10960
:10028000C830D1052CF183E090E092D0682F70E067
:10029000CE0156D0B30165D0C62F682D6C0FE62E67
:1002A00081E090E08DD0609167006C1BD62E82E0DB
:1002B00090E086D06091600084E090E081D0609111
:1002C000610085E090E07CD042E062E08AE0C2DE3E
:1002D0001092620013C0909164009C1579F0909187
:1002E0006500C91618F4C092650006C090916700B9
:1002F0009C1510F4C0926700C092640088B38270AD
:10030000981669F0C2988091600090916100019602
:10031000909361008093600088B38270982EB499A6
:100320009FCF83E086DEB4999BCF80916100AFDEE2
:1003300080916000ACDE109261001092600090CF5E
:100340000024552704C0080E591F880F991F0097D5
:1003500029F076956795B8F37105B9F7802D952F3B
:10036000089597FB072E16F4009406D077FD08D069
:100370000BD007FC05D03EF4909581959F4F0895D2
:10038000709561957F4F0895AA1BBB1B51E107C073
:10039000AA1FBB1FA617B70710F0A61BB70B881F15
:1003A000991F5A95A9F780959095BC01CD010895A4
:1003B000E199FECF1FBA8EBBE09A99278DB30895BD
:1003C000262FE199FECF1FBA8EBBE09A81500DB265
:1003D000021639F01CBA2DBB0FB6F894E29AE19AD6
:0803E0000FBE0895F894FFCF51
:00000001FF
